:100000000C9462000C948A000C948A000C948A0070
:100010000C948A000C948A000C948A000C948A0038
:100020000C948A000C948A000C948A000C948A0028
:100030000C948A000C948A000C948A000C948A0018
:100040000C94E7020C948A000C9457030C9431032F
:100050000C948A000C948A000C948A000C948A00F8
:100060000C948A000C948A000000000023002600F3
:10007000290000000000240027002A0000000000E2
:10008000250028002B0004040404040404040202D4
:100090000202020203030303030301020408102007
:1000A0004080010204081020010204081020000012
:1000B0000008000201000003040700000000000027
:1000C0000000070511241FBECFEFD8E0DEBFCDBF73
:1000D00022E0A6E7B1E001C01D92A532B207E1F728
:1000E00011E0A0E0B1E0EEE0FFE002C005900D926B
:1000F000A637B107D9F710E0C2E6D0E004C02197D7
:10010000FE010E948D05C136D107C9F70E948903FF
:100110000C9485070C940000833081F028F4813022
:1001200099F08230A9F008958730A9F08830C9F09D
:100130008430B1F4809180008F7D03C08091800075
:100140008F7780938000089584B58F7784BD08955C
:1001500084B58F7DFBCF8091B0008F778093B00006
:1001600008958091B0008F7DF9CF1F93CF93DF93D7
:10017000282F30E0F901E255FF4F8491F901E6564E
:10018000FF4FD491F901EA57FF4FC491CC23A9F056
:10019000162F81110E948C00EC2FF0E0EE0FFF1F54
:1001A000E458FF4FA591B4918FB7F894EC911111D9
:1001B00008C0D095DE23DC938FBFDF91CF911F91D4
:1001C0000895DE2BF8CFCF93DF9390E0FC01E65645
:1001D000FF4F24918A579F4FFC0184918823D1F0CF
:1001E00090E0880F991FFC01EE58FF4FA591B49144
:1001F000FC01E458FF4FC591D49161110EC09FB727
:10020000F8948C91E22FE0958E238C932881E22341
:10021000E8839FBFDF91CF9108958FB7F894EC9159
:10022000E22BEC938FBFF6CF3FB7F894809180011B
:1002300090918101A0918201B091830126B5A89B84
:1002400005C02F3F19F00196A11DB11D3FBFBA2F68
:10025000A92F982F8827BC01CD01620F711D811D28
:10026000911D42E0660F771F881F991F4A95D1F7AD
:1002700008958F929F92AF92BF92CF92DF92EF92AA
:10028000FF924B015C010E9414016B017C010E94F2
:1002900014016C197D098E099F09683E7340810520
:1002A0009105A8F321E0821A9108A108B10888EE0F
:1002B000C80E83E0D81EE11CF11C81149104A10436
:1002C000B10429F7FF90EF90DF90CF90BF90AF90EF
:1002D0009F908F900895AF92BF92CF92DF92EF924E
:1002E000FF920F931F93CF93DF936C017B018B01E0
:1002F000040F151FEB015E01AE18BF08C017D10730
:1003000059F06991D601ED91FC910190F081E02DB9
:10031000C6010995892B79F7C501DF91CF911F910E
:100320000F91FF90EF90DF90CF90BF90AF90089526
:10033000FC01538D448D252F30E0842F90E0821BEB
:10034000930B541710F0CF96089501970895FC0170
:10035000918D828D981761F0A28DAE0FBF2FB11DC8
:100360005D968C91928D9F5F9F73928F90E0089520
:100370008FEF9FEF0895FC01918D828D981731F0DA
:10038000828DE80FF11D858D90E008958FEF9FEF2E
:100390000895FC01918D228D892F90E0805C9F4F04
:1003A000821B91098F739927089584E891E00E9438
:1003B000C90121E0892B09F420E0822F089580E013
:1003C00090E0892B29F00E94D50181110C94000046
:1003D0000895FC01A48DA80FB92FB11DA35ABF4FDA
:1003E0002C91848D90E001968F739927848FA68934
:1003F000B7892C93A089B1898C91837080648C9388
:10040000938D848D981306C00288F389E02D808136
:100410008F7D80830895EF92FF920F931F93CF9368
:10042000DF93EC0181E0888F9B8D8C8D98131AC02F
:10043000E889F989808185FF15C09FB7F894EE8916
:10044000FF896083E889F989808183708064808373
:100450009FBF81E090E0DF91CF911F910F91FF90BE
:10046000EF900895F62E0B8D10E00F5F1F4F0F7366
:100470001127E02E8C8D8E110CC00FB607FCFACF21
:10048000E889F989808185FFF5CFCE010E94E901D5
:10049000F1CFEB8DEC0FFD2FF11DE35AFF4FF082F2
:1004A0009FB7F8940B8FEA89FB8980818062CFCF58
:1004B000CF93DF93EC01888D8823B9F0AA89BB899B
:1004C000E889F9898C9185FD03C0808186FD0DC086
:1004D0000FB607FCF7CF8C9185FFF2CF808185FFA7
:1004E000EDCFCE010E94E901E9CFDF91CF910895D0
:1004F00042E050E068E171E084E891E00C946B0127
:10050000CF93DF93FC0101900020E9F73197AF0111
:10051000481B590BBC0184E891E00E946B01EC017F
:100520000E9478028C0F9D1FDF91CF910895CF9389
:10053000DF93EC0161E082E00E94B50064E670E0C8
:1005400080E090E00E94390160E082E00E94B50006
:100550008FB7F89440917C0150917D0160917E01AC
:1005600070917F018FBF4C815D816881798184E8C2
:1005700091E00E946B01DF91CF910C9478020F9370
:100580001F93CF93DF93EC0188819981009759F0F5
:100590002A813B812617370730F081E0DF91CF9128
:1005A0001F910F9108958B016F5F7F4F0E94B806D6
:1005B000009759F0998388831B830A832C813D819E
:1005C000232B59F7FC011082E8CF80E0E7CF1F9280
:1005D0000F920FB60F9211242F933F938F939F93F7
:1005E000AF93BF9380917C0190917D01A0917E019A
:1005F000B0917F0130917B0123E0230F2D3758F517
:100600000196A11DB11D20937B0180937C019093E5
:100610007D01A0937E01B0937F0180918001909134
:100620008101A0918201B09183010196A11DB11DAC
:100630008093800190938101A0938201B093830104
:10064000BF91AF919F918F913F912F910F900FBECE
:100650000F901F90189526E8230F0296A11DB11D3B
:10066000D2CF1F920F920FB60F9211242F933F9368
:100670004F935F936F937F938F939F93AF93BF93AA
:10068000EF93FF9384E891E00E94E901FF91EF91DD
:10069000BF91AF919F918F917F916F915F914F919A
:1006A0003F912F910F900FBE0F901F9018951F92A2
:1006B0000F920FB60F9211242F938F939F93EF9366
:1006C000FF93E0919401F09195018081E0919A016E
:1006D000F0919B0182FD1BC0908180919D018F5FF5
:1006E0008F7320919E01821741F0E0919D01F0E00F
:1006F000EC57FE4F958F80939D01FF91EF919F9155
:100700008F912F910F900FBE0F901F9018958081A1
:10071000F4CFCF93DF9300D000D000D0CDB7DEB7B9
:10072000789484B5826084BD84B5816084BD85B5CC
:10073000826085BD85B5816085BD80916E008160D8
:1007400080936E001092810080918100826080937E
:100750008100809181008160809381008091800080
:100760008160809380008091B10084608093B100AB
:100770008091B00081608093B00080917A008460A5
:1007800080937A0080917A00826080937A008091D1
:100790007A00816080937A0080917A0080688093EB
:1007A0007A001092C100E0919401F091950182E0ED
:1007B0008083E0919001F09191011082E09192018B
:1007C000F09193018FEC808310929C01E09198014D
:1007D000F091990186E08083E0919601F091970174
:1007E000808180618083E0919601F0919701808102
:1007F00088608083E0919601F09197018081806804
:100800008083E0919601F091970180818F7D8083B4
:1008100004B601FE04C08BE191E00E94800284B71F
:10082000857021F083E391E00E94800204B603FE0C
:1008300004C087E491E00E94800214BE61E084E07D
:100840000E94E30061E082E00E94E30060E085E056
:100850000E94E3001A8219821C821B821E821D8262
:1008600065E170E0CE0101960E94BF0229813A81C4
:100870008111A7C02115310519F0C9010E942F0669
:100880001A8219821E821D821C821B82CE01019651
:100890000E94970289819A81009711F00E942F0689
:1008A00068EE73E080E090E00E94390198EE492EF6
:1008B00093E0592E612C712C9924939403EB10E052
:1008C00020E0A22E20E0B22E8FB7F894C0907C01D9
:1008D000D0907D01E0907E01F0907F018FBF8091EC
:1008E000770190917801A0917901B0917A01A701E7
:1008F0009601281B390B4A0B5B0BDA01C901883EB4
:100900009340A105B105E0F1C701B601A301920131
:100910000E946B05A7019601261B370B480B590B4C
:10092000DA01C9018093770190937801A09379014E
:10093000B0937A011A8219821C821B821E821D8248
:1009400065E170E0CE0101960E94BF0229813A81E3
:10095000811141C02115310519F0C9010E942F06EE
:100960001A8219821E821D821C821B82CE01019670
:100970000E94970289819A81009711F00E942F06A8
:100980006091760169256093760184E00E94B5004C
:10099000F8018491EFE9F0E08490EBE8F0E0349026
:1009A000332019F181110E948C00E32DF0E0EE0F4D
:1009B000FF1FE859FF4FA591B4918C918822A9F0AF
:1009C000FFCF85E190E09E838D836FE571E0C901E3
:1009D0000E947E075BCF85E190E09E838D836FE56B
:1009E00071E0C9010E947E07C1CF64EF71E080E031
:1009F00090E00E943901A114B10409F465CF0E946E
:100A0000D501882309F460CF0E9400005DCFE4E89F
:100A1000F1E01382128288EE93E0A0E0B0E08483DC
:100A20009583A683B7838AE091E09183808385ECE8
:100A300090E09587848784EC90E09787868780ECA8
:100A400090E0918B808B81EC90E0938B828B82EC99
:100A500090E0958B848B86EC90E0978B868B118E43
:100A6000128E138E148E08952F923F924F925F92A2
:100A70006F927F928F929F92AF92BF92CF92DF92AE
:100A8000EF92FF920F931F93CF93DF93CDB7DEB713
:100A9000CA1BDB0B0FB6F894DEBF0FBECDBF0994A7
:100AA0002A88398848885F846E847D848C849B84FE
:100AB000AA84B984C884DF80EE80FD800C811B810C
:100AC000AA81B981CE0FD11D0FB6F894DEBF0FBE3B
:100AD000CDBFED010895A1E21A2EAA1BBB1BFD019B
:100AE0000DC0AA1FBB1FEE1FFF1FA217B307E4070D
:100AF000F50720F0A21BB30BE40BF50B661F771F65
:100B0000881F991F1A9469F7609570958095909544
:100B10009B01AC01BD01CF010895EE0FFF1F0590B1
:100B2000F491E02D09940F931F93CF93DF938230BC
:100B3000910510F482E090E0E0912302F09124020C
:100B400030E020E0B0E0A0E0309799F421153105C5
:100B500009F44AC0281B390B24303105D8F58A81A5
:100B60009B816115710589F1FB0193838283FE01ED
:100B700011C0408151810281138148175907E0F06B
:100B80004817590799F4109761F012960C93129731
:100B900013961C933296CF01DF91CF911F910F9145
:100BA00008950093230210932402F4CF21153105F8
:100BB00051F04217530738F0A901DB019A01BD013A
:100BC000DF01F801C1CFEF01F9CF909324028093A8
:100BD0002302CDCFFE01E20FF31F819391932250A8
:100BE000310939832883D7CF209121023091220205
:100BF000232B41F420910201309103013093220212
:100C0000209321022091000130910101211531052D
:100C100041F42DB73EB74091040150910501241BCA
:100C2000350BE0912102F0912202E217F307A0F4C4
:100C30002E1B3F0B2817390778F0AC014E5F5F4F32
:100C40002417350748F04E0F5F1F50932202409340
:100C50002102819391939FCFF0E0E0E09CCFCF936E
:100C6000DF930097E9F0FC01329713821282A09182
:100C70002302B0912402ED0130E020E01097A1F4AE
:100C800020813181820F931F209121023091220215
:100C90002817390709F061C0F0932202E09321027E
:100CA000DF91CF910895EA01CE17DF07E8F54A8179
:100CB0005B819E0141155105B1F7E901FB83EA8390
:100CC00049915991C40FD51FEC17FD0761F480813C
:100CD00091810296840F951FE9019983888382810F
:100CE00093819B838A83F0E0E0E012968D919C9142
:100CF00013970097B9F52D913C911197CD0102966C
:100D0000820F931F20912102309122022817390768
:100D100039F6309751F51092240210922302B093C5
:100D20002202A0932102BCCFD383C2834081518190
:100D3000840F951FC817D90761F44E5F5F4F8881F4
:100D40009981480F591F518340838A819B819383E6
:100D500082832115310509F0B0CFF0932402E0938E
:100D600023029ECFFD01DC01C0CF13821282D7CFB8
:100D7000B0E0A0E0EEEBF6E00C9436058C010097B5
:100D800051F4CB010E9493058C01C801CDB7DEB7A9
:100D9000E0E10C945205FC01E60FF71F9C01225084
:100DA0003109E217F30708F49DC0D901CD91DC9118
:100DB0001197C617D70798F0C530D10530F3CE018B
:100DC00004978617970708F3C61BD70B2297C19382
:100DD000D1936D937C93CF010E942F06D6CF5B01F8
:100DE000AC1ABD0A4C018C0E9D1EA0912302B0913D
:100DF0002402512C412CF12CE12C109731F58091DB
:100E00002102909122028815990509F05CC04616CE
:100E1000570608F058C08091000190910101009799
:100E200041F48DB79EB74091040150910501841B98
:100E3000950BE817F90708F055C0F0932202E093EC
:100E40002102F90171836083A0CF8D919C9111974C
:100E500012966C90129713967C901397A815B9056B
:100E600059F56C0142E0C40ED11CCA14DB0420F118
:100E7000AC014A195B09DA011296159780F062827B
:100E8000738251834083D9016D937C93E114F10403
:100E900071F0D7011396FC93EE93129776CF2296BA
:100EA0008C0F9D1FF90191838083F301EFCFF093A5
:100EB0002402E093230269CF4816590608F42C0156
:100EC0007D01D3019ACFCB010E9493057C0100974D
:100ED00049F0AE01B8010E947507C8010E942F06B3
:100EE000870153CF10E000E050CFFB01DC0102C0CE
:100EF00001900D9241505040D8F70895FB01DC015C
:0E0F000001900D920020E1F70895F894FFCFC4
:100F0E00000025028000000000000B026B0198011A
:100F1E005802C901A701BB010D0A0045787465721C
:100F2E006E616C205761746368646F6720526573DD
:100F3E00657400506F776572206C6F7373206F63EA
:100F4E0063757265642100496E7465726E616C2002
:100F5E005761746368646F672052657365740057D8
:100F6E0061746368646F672050696E6720537563A0
:060F7E00636573730000BF
:00000001FF
